{
  "_format": "hh-sol-artifact-1",
  "contractName": "Registry",
  "sourceName": "contracts/Registry.sol",
  "abi": [
    {
      "inputs": [],
      "stateMutability": "nonpayable",
      "type": "constructor"
    },
    {
      "inputs": [],
      "name": "AlreadyRegistered",
      "type": "error"
    },
    {
      "inputs": [],
      "name": "NotPartner",
      "type": "error"
    },
    {
      "inputs": [
        {
          "internalType": "address",
          "name": "owner",
          "type": "address"
        }
      ],
      "name": "OwnableInvalidOwner",
      "type": "error"
    },
    {
      "inputs": [
        {
          "internalType": "address",
          "name": "account",
          "type": "address"
        }
      ],
      "name": "OwnableUnauthorizedAccount",
      "type": "error"
    },
    {
      "anonymous": false,
      "inputs": [
        {
          "indexed": true,
          "internalType": "address",
          "name": "previousOwner",
          "type": "address"
        },
        {
          "indexed": true,
          "internalType": "address",
          "name": "newOwner",
          "type": "address"
        }
      ],
      "name": "OwnershipTransferred",
      "type": "event"
    },
    {
      "anonymous": false,
      "inputs": [
        {
          "indexed": true,
          "internalType": "address",
          "name": "partner",
          "type": "address"
        },
        {
          "indexed": false,
          "internalType": "string",
          "name": "name",
          "type": "string"
        },
        {
          "indexed": false,
          "internalType": "enum Registry.UserType",
          "name": "userType",
          "type": "uint8"
        }
      ],
      "name": "PartnerAdded",
      "type": "event"
    },
    {
      "anonymous": false,
      "inputs": [
        {
          "indexed": true,
          "internalType": "address",
          "name": "partner",
          "type": "address"
        }
      ],
      "name": "PartnerRemoved",
      "type": "event"
    },
    {
      "anonymous": false,
      "inputs": [
        {
          "indexed": true,
          "internalType": "address",
          "name": "partnershipAddress",
          "type": "address"
        }
      ],
      "name": "PartnershipSet",
      "type": "event"
    },
    {
      "inputs": [
        {
          "internalType": "string",
          "name": "name",
          "type": "string"
        },
        {
          "internalType": "enum Registry.UserType",
          "name": "userType",
          "type": "uint8"
        }
      ],
      "name": "addPartner",
      "outputs": [],
      "stateMutability": "nonpayable",
      "type": "function"
    },
    {
      "inputs": [],
      "name": "getAllPartners",
      "outputs": [
        {
          "components": [
            {
              "internalType": "string",
              "name": "name",
              "type": "string"
            },
            {
              "internalType": "enum Registry.UserType",
              "name": "userType",
              "type": "uint8"
            }
          ],
          "internalType": "struct Registry.Partner[]",
          "name": "",
          "type": "tuple[]"
        }
      ],
      "stateMutability": "view",
      "type": "function"
    },
    {
      "inputs": [
        {
          "internalType": "address",
          "name": "partner",
          "type": "address"
        }
      ],
      "name": "getPartnerInfo",
      "outputs": [
        {
          "components": [
            {
              "internalType": "string",
              "name": "name",
              "type": "string"
            },
            {
              "internalType": "enum Registry.UserType",
              "name": "userType",
              "type": "uint8"
            }
          ],
          "internalType": "struct Registry.Partner",
          "name": "",
          "type": "tuple"
        }
      ],
      "stateMutability": "view",
      "type": "function"
    },
    {
      "inputs": [
        {
          "internalType": "address",
          "name": "_address",
          "type": "address"
        }
      ],
      "name": "isPartner",
      "outputs": [
        {
          "internalType": "bool",
          "name": "",
          "type": "bool"
        }
      ],
      "stateMutability": "view",
      "type": "function"
    },
    {
      "inputs": [],
      "name": "owner",
      "outputs": [
        {
          "internalType": "address",
          "name": "",
          "type": "address"
        }
      ],
      "stateMutability": "view",
      "type": "function"
    },
    {
      "inputs": [
        {
          "internalType": "uint256",
          "name": "",
          "type": "uint256"
        }
      ],
      "name": "partnerAddresses",
      "outputs": [
        {
          "internalType": "address",
          "name": "",
          "type": "address"
        }
      ],
      "stateMutability": "view",
      "type": "function"
    },
    {
      "inputs": [
        {
          "internalType": "address",
          "name": "",
          "type": "address"
        }
      ],
      "name": "partners",
      "outputs": [
        {
          "internalType": "string",
          "name": "name",
          "type": "string"
        },
        {
          "internalType": "enum Registry.UserType",
          "name": "userType",
          "type": "uint8"
        }
      ],
      "stateMutability": "view",
      "type": "function"
    },
    {
      "inputs": [
        {
          "internalType": "address",
          "name": "",
          "type": "address"
        }
      ],
      "name": "registered",
      "outputs": [
        {
          "internalType": "bool",
          "name": "",
          "type": "bool"
        }
      ],
      "stateMutability": "view",
      "type": "function"
    },
    {
      "inputs": [
        {
          "internalType": "address",
          "name": "partnerAddress",
          "type": "address"
        }
      ],
      "name": "removePartner",
      "outputs": [],
      "stateMutability": "nonpayable",
      "type": "function"
    },
    {
      "inputs": [],
      "name": "renounceOwnership",
      "outputs": [],
      "stateMutability": "nonpayable",
      "type": "function"
    },
    {
      "inputs": [
        {
          "internalType": "address",
          "name": "partnershipAddress",
          "type": "address"
        }
      ],
      "name": "setPartnership",
      "outputs": [],
      "stateMutability": "nonpayable",
      "type": "function"
    },
    {
      "inputs": [
        {
          "internalType": "address",
          "name": "newOwner",
          "type": "address"
        }
      ],
      "name": "transferOwnership",
      "outputs": [],
      "stateMutability": "nonpayable",
      "type": "function"
    }
  ],
  "bytecode": "0x60806040523480156200001157600080fd5b5033600073ffffffffffffffffffffffffffffffffffffffff168173ffffffffffffffffffffffffffffffffffffffff1603620000885760006040517f1e4fbdf70000000000000000000000000000000000000000000000000000000081526004016200007f9190620001a9565b60405180910390fd5b6200009981620000a060201b60201c565b50620001c6565b60008060009054906101000a900473ffffffffffffffffffffffffffffffffffffffff169050816000806101000a81548173ffffffffffffffffffffffffffffffffffffffff021916908373ffffffffffffffffffffffffffffffffffffffff1602179055508173ffffffffffffffffffffffffffffffffffffffff168173ffffffffffffffffffffffffffffffffffffffff167f8be0079c531659141344cd1fd0a4f28419497f9722a3daafe3b4186f6b6457e060405160405180910390a35050565b600073ffffffffffffffffffffffffffffffffffffffff82169050919050565b6000620001918262000164565b9050919050565b620001a38162000184565b82525050565b6000602082019050620001c0600083018462000198565b92915050565b611d7780620001d66000396000f3fe608060405234801561001057600080fd5b50600436106100b45760003560e01c8063a8fbd37611610071578063a8fbd376146101a2578063b2dd5c07146101be578063d3e83a08146101ee578063ea3c281a1461020c578063f2fde38b14610228578063fb401ec114610244576100b4565b806354f79cf3146100b9578063715018a6146100e95780638c0f9aac146100f35780638da5cb5b14610123578063942f0de61461014157806395c3365214610171575b600080fd5b6100d360048036038101906100ce919061123c565b610260565b6040516100e091906113ad565b60405180910390f35b6100f1610409565b005b61010d6004803603810190610108919061123c565b61041d565b60405161011a91906113ea565b60405180910390f35b61012b610473565b6040516101389190611414565b60405180910390f35b61015b60048036038101906101569190611465565b61049c565b6040516101689190611414565b60405180910390f35b61018b6004803603810190610186919061123c565b6104db565b6040516101999291906114eb565b60405180910390f35b6101bc60048036038101906101b791906115a5565b610594565b005b6101d860048036038101906101d3919061123c565b61081d565b6040516101e591906113ea565b60405180910390f35b6101f661083d565b6040516102039190611704565b60405180910390f35b6102266004803603810190610221919061123c565b610a38565b005b610242600480360381019061023d919061123c565b610bd9565b005b61025e6004803603810190610259919061123c565b610c5f565b005b610268611141565b600260008373ffffffffffffffffffffffffffffffffffffffff1673ffffffffffffffffffffffffffffffffffffffff16815260200190815260200160002060009054906101000a900460ff166102eb576040517facf7d06b00000000000000000000000000000000000000000000000000000000815260040160405180910390fd5b600160008373ffffffffffffffffffffffffffffffffffffffff1673ffffffffffffffffffffffffffffffffffffffff16815260200190815260200160002060405180604001604052908160008201805461034590611755565b80601f016020809104026020016040519081016040528092919081815260200182805461037190611755565b80156103be5780601f10610393576101008083540402835291602001916103be565b820191906000526020600020905b8154815290600101906020018083116103a157829003601f168201915b505050505081526020016001820160009054906101000a900460ff1660018111156103ec576103eb6112f9565b5b60018111156103fe576103fd6112f9565b5b815250509050919050565b610411610cee565b61041b6000610d75565b565b6000600260008373ffffffffffffffffffffffffffffffffffffffff1673ffffffffffffffffffffffffffffffffffffffff16815260200190815260200160002060009054906101000a900460ff169050919050565b60008060009054906101000a900473ffffffffffffffffffffffffffffffffffffffff16905090565b600381815481106104ac57600080fd5b906000526020600020016000915054906101000a900473ffffffffffffffffffffffffffffffffffffffff1681565b60016020528060005260406000206000915090508060000180546104fe90611755565b80601f016020809104026020016040519081016040528092919081815260200182805461052a90611755565b80156105775780601f1061054c57610100808354040283529160200191610577565b820191906000526020600020905b81548152906001019060200180831161055a57829003601f168201915b5050505050908060010160009054906101000a900460ff16905082565b600260003373ffffffffffffffffffffffffffffffffffffffff1673ffffffffffffffffffffffffffffffffffffffff16815260200190815260200160002060009054906101000a900460ff1615610618576040517f3a81d6fc00000000000000000000000000000000000000000000000000000000815260040160405180910390fd5b604051806040016040528084848080601f016020809104026020016040519081016040528093929190818152602001838380828437600081840152601f19601f8201169050808301925050505050505081526020018260018111156106805761067f6112f9565b5b815250600160003373ffffffffffffffffffffffffffffffffffffffff1673ffffffffffffffffffffffffffffffffffffffff16815260200190815260200160002060008201518160000190816106d79190611961565b5060208201518160010160006101000a81548160ff02191690836001811115610703576107026112f9565b5b02179055509050506001600260003373ffffffffffffffffffffffffffffffffffffffff1673ffffffffffffffffffffffffffffffffffffffff16815260200190815260200160002060006101000a81548160ff0219169083151502179055506003339080600181540180825580915050600190039060005260206000200160009091909190916101000a81548173ffffffffffffffffffffffffffffffffffffffff021916908373ffffffffffffffffffffffffffffffffffffffff1602179055503373ffffffffffffffffffffffffffffffffffffffff167f24012143bef68e8ecc3ab48d127eadccd79e9eeb5ddc46ebb59b797a41fd67af84848460405161081093929190611a6f565b60405180910390a2505050565b60026020528060005260406000206000915054906101000a900460ff1681565b6060600060038054905067ffffffffffffffff8111156108605761085f611786565b5b60405190808252806020026020018201604052801561089957816020015b610886611141565b81526020019060019003908161087e5790505b50905060005b600380549050811015610a305760016000600383815481106108c4576108c3611aa1565b5b9060005260206000200160009054906101000a900473ffffffffffffffffffffffffffffffffffffffff1673ffffffffffffffffffffffffffffffffffffffff1673ffffffffffffffffffffffffffffffffffffffff16815260200190815260200160002060405180604001604052908160008201805461094490611755565b80601f016020809104026020016040519081016040528092919081815260200182805461097090611755565b80156109bd5780601f10610992576101008083540402835291602001916109bd565b820191906000526020600020905b8154815290600101906020018083116109a057829003601f168201915b505050505081526020016001820160009054906101000a900460ff1660018111156109eb576109ea6112f9565b5b60018111156109fd576109fc6112f9565b5b81525050828281518110610a1457610a13611aa1565b5b602002602001018190525080610a2990611aff565b905061089f565b508091505090565b610a40610cee565b600260008273ffffffffffffffffffffffffffffffffffffffff1673ffffffffffffffffffffffffffffffffffffffff16815260200190815260200160002060009054906101000a900460ff16610ac3576040517facf7d06b00000000000000000000000000000000000000000000000000000000815260040160405180910390fd5b600160008273ffffffffffffffffffffffffffffffffffffffff1673ffffffffffffffffffffffffffffffffffffffff16815260200190815260200160002060008082016000610b13919061116d565b6001820160006101000a81549060ff021916905550506000600260008373ffffffffffffffffffffffffffffffffffffffff1673ffffffffffffffffffffffffffffffffffffffff16815260200190815260200160002060006101000a81548160ff021916908315150217905550610b8a81610e39565b610b9381610fc9565b8073ffffffffffffffffffffffffffffffffffffffff167fd2639eca7fc6fcdba5fa158fc8075b41bc021e97ac1e127b9da5f4fd925f082860405160405180910390a250565b610be1610cee565b600073ffffffffffffffffffffffffffffffffffffffff168173ffffffffffffffffffffffffffffffffffffffff1603610c535760006040517f1e4fbdf7000000000000000000000000000000000000000000000000000000008152600401610c4a9190611414565b60405180910390fd5b610c5c81610d75565b50565b610c67610cee565b80600460006101000a81548173ffffffffffffffffffffffffffffffffffffffff021916908373ffffffffffffffffffffffffffffffffffffffff1602179055508073ffffffffffffffffffffffffffffffffffffffff167ff5e69048caf1b5af66c35abf7957c9e85686f95a736472da9bc398ef6c1244df60405160405180910390a250565b610cf6611139565b73ffffffffffffffffffffffffffffffffffffffff16610d14610473565b73ffffffffffffffffffffffffffffffffffffffff1614610d7357610d37611139565b6040517f118cdaa7000000000000000000000000000000000000000000000000000000008152600401610d6a9190611414565b60405180910390fd5b565b60008060009054906101000a900473ffffffffffffffffffffffffffffffffffffffff169050816000806101000a81548173ffffffffffffffffffffffffffffffffffffffff021916908373ffffffffffffffffffffffffffffffffffffffff1602179055508173ffffffffffffffffffffffffffffffffffffffff168173ffffffffffffffffffffffffffffffffffffffff167f8be0079c531659141344cd1fd0a4f28419497f9722a3daafe3b4186f6b6457e060405160405180910390a35050565b60005b600380549050811015610fc5578173ffffffffffffffffffffffffffffffffffffffff1660038281548110610e7457610e73611aa1565b5b9060005260206000200160009054906101000a900473ffffffffffffffffffffffffffffffffffffffff1673ffffffffffffffffffffffffffffffffffffffff1603610fb25760036001600380549050610ece9190611b47565b81548110610edf57610ede611aa1565b5b9060005260206000200160009054906101000a900473ffffffffffffffffffffffffffffffffffffffff1660038281548110610f1e57610f1d611aa1565b5b9060005260206000200160006101000a81548173ffffffffffffffffffffffffffffffffffffffff021916908373ffffffffffffffffffffffffffffffffffffffff1602179055506003805480610f7857610f77611b7b565b5b6001900381819060005260206000200160006101000a81549073ffffffffffffffffffffffffffffffffffffffff02191690559055610fc5565b8080610fbd90611aff565b915050610e3c565b5050565b6000600460009054906101000a900473ffffffffffffffffffffffffffffffffffffffff1673ffffffffffffffffffffffffffffffffffffffff1663e5cad4e4836040518263ffffffff1660e01b81526004016110269190611414565b600060405180830381865afa158015611043573d6000803e3d6000fd5b505050506040513d6000823e3d601f19601f8201168201806040525081019061106c9190611cce565b905060005b815181101561113457600460009054906101000a900473ffffffffffffffffffffffffffffffffffffffff1673ffffffffffffffffffffffffffffffffffffffff1663461fee4d8383815181106110cb576110ca611aa1565b5b60200260200101516040518263ffffffff1660e01b81526004016110ef9190611d26565b600060405180830381600087803b15801561110957600080fd5b505af115801561111d573d6000803e3d6000fd5b50505050808061112c90611aff565b915050611071565b505050565b600033905090565b60405180604001604052806060815260200160006001811115611167576111666112f9565b5b81525090565b50805461117990611755565b6000825580601f1061118b57506111aa565b601f0160209004906000526020600020908101906111a991906111ad565b5b50565b5b808211156111c65760008160009055506001016111ae565b5090565b6000604051905090565b600080fd5b600080fd5b600073ffffffffffffffffffffffffffffffffffffffff82169050919050565b6000611209826111de565b9050919050565b611219816111fe565b811461122457600080fd5b50565b60008135905061123681611210565b92915050565b600060208284031215611252576112516111d4565b5b600061126084828501611227565b91505092915050565b600081519050919050565b600082825260208201905092915050565b60005b838110156112a3578082015181840152602081019050611288565b60008484015250505050565b6000601f19601f8301169050919050565b60006112cb82611269565b6112d58185611274565b93506112e5818560208601611285565b6112ee816112af565b840191505092915050565b7f4e487b7100000000000000000000000000000000000000000000000000000000600052602160045260246000fd5b60028110611339576113386112f9565b5b50565b600081905061134a82611328565b919050565b600061135a8261133c565b9050919050565b61136a8161134f565b82525050565b6000604083016000830151848203600086015261138d82826112c0565b91505060208301516113a26020860182611361565b508091505092915050565b600060208201905081810360008301526113c78184611370565b905092915050565b60008115159050919050565b6113e4816113cf565b82525050565b60006020820190506113ff60008301846113db565b92915050565b61140e816111fe565b82525050565b60006020820190506114296000830184611405565b92915050565b6000819050919050565b6114428161142f565b811461144d57600080fd5b50565b60008135905061145f81611439565b92915050565b60006020828403121561147b5761147a6111d4565b5b600061148984828501611450565b91505092915050565b600082825260208201905092915050565b60006114ae82611269565b6114b88185611492565b93506114c8818560208601611285565b6114d1816112af565b840191505092915050565b6114e58161134f565b82525050565b6000604082019050818103600083015261150581856114a3565b905061151460208301846114dc565b9392505050565b600080fd5b600080fd5b600080fd5b60008083601f8401126115405761153f61151b565b5b8235905067ffffffffffffffff81111561155d5761155c611520565b5b60208301915083600182028301111561157957611578611525565b5b9250929050565b6002811061158d57600080fd5b50565b60008135905061159f81611580565b92915050565b6000806000604084860312156115be576115bd6111d4565b5b600084013567ffffffffffffffff8111156115dc576115db6111d9565b5b6115e88682870161152a565b935093505060206115fb86828701611590565b9150509250925092565b600081519050919050565b600082825260208201905092915050565b6000819050602082019050919050565b6000604083016000830151848203600086015261164e82826112c0565b91505060208301516116636020860182611361565b508091505092915050565b600061167a8383611631565b905092915050565b6000602082019050919050565b600061169a82611605565b6116a48185611610565b9350836020820285016116b685611621565b8060005b858110156116f257848403895281516116d3858261166e565b94506116de83611682565b925060208a019950506001810190506116ba565b50829750879550505050505092915050565b6000602082019050818103600083015261171e818461168f565b905092915050565b7f4e487b7100000000000000000000000000000000000000000000000000000000600052602260045260246000fd5b6000600282049050600182168061176d57607f821691505b6020821081036117805761177f611726565b5b50919050565b7f4e487b7100000000000000000000000000000000000000000000000000000000600052604160045260246000fd5b60008190508160005260206000209050919050565b60006020601f8301049050919050565b600082821b905092915050565b6000600883026118177fffffffffffffffffffffffffffffffffffffffffffffffffffffffffffffffff826117da565b61182186836117da565b95508019841693508086168417925050509392505050565b6000819050919050565b600061185e6118596118548461142f565b611839565b61142f565b9050919050565b6000819050919050565b61187883611843565b61188c61188482611865565b8484546117e7565b825550505050565b600090565b6118a1611894565b6118ac81848461186f565b505050565b5b818110156118d0576118c5600082611899565b6001810190506118b2565b5050565b601f821115611915576118e6816117b5565b6118ef846117ca565b810160208510156118fe578190505b61191261190a856117ca565b8301826118b1565b50505b505050565b600082821c905092915050565b60006119386000198460080261191a565b1980831691505092915050565b60006119518383611927565b9150826002028217905092915050565b61196a82611269565b67ffffffffffffffff81111561198357611982611786565b5b61198d8254611755565b6119988282856118d4565b600060209050601f8311600181146119cb57600084156119b9578287015190505b6119c38582611945565b865550611a2b565b601f1984166119d9866117b5565b60005b82811015611a01578489015182556001820191506020850194506020810190506119dc565b86831015611a1e5784890151611a1a601f891682611927565b8355505b6001600288020188555050505b505050505050565b82818337600083830152505050565b6000611a4e8385611492565b9350611a5b838584611a33565b611a64836112af565b840190509392505050565b60006040820190508181036000830152611a8a818587611a42565b9050611a9960208301846114dc565b949350505050565b7f4e487b7100000000000000000000000000000000000000000000000000000000600052603260045260246000fd5b7f4e487b7100000000000000000000000000000000000000000000000000000000600052601160045260246000fd5b6000611b0a8261142f565b91507fffffffffffffffffffffffffffffffffffffffffffffffffffffffffffffffff8203611b3c57611b3b611ad0565b5b600182019050919050565b6000611b528261142f565b9150611b5d8361142f565b9250828203905081811115611b7557611b74611ad0565b5b92915050565b7f4e487b7100000000000000000000000000000000000000000000000000000000600052603160045260246000fd5b611bb3826112af565b810181811067ffffffffffffffff82111715611bd257611bd1611786565b5b80604052505050565b6000611be56111ca565b9050611bf18282611baa565b919050565b600067ffffffffffffffff821115611c1157611c10611786565b5b602082029050602081019050919050565b600081519050611c3181611439565b92915050565b6000611c4a611c4584611bf6565b611bdb565b90508083825260208201905060208402830185811115611c6d57611c6c611525565b5b835b81811015611c965780611c828882611c22565b845260208401935050602081019050611c6f565b5050509392505050565b600082601f830112611cb557611cb461151b565b5b8151611cc5848260208601611c37565b91505092915050565b600060208284031215611ce457611ce36111d4565b5b600082015167ffffffffffffffff811115611d0257611d016111d9565b5b611d0e84828501611ca0565b91505092915050565b611d208161142f565b82525050565b6000602082019050611d3b6000830184611d17565b9291505056fea2646970667358221220b90f54f2844e53e0a977faf5500828873e904937a6b60ea3e28931fa8cd13be164736f6c63430008140033",
  "linkReferences": {},
  "deployedLinkReferences": {}
}