{
  "_format": "hh-sol-artifact-1",
  "contractName": "Partnership",
  "sourceName": "contracts/Partnership.sol",
  "abi": [
    {
      "inputs": [
        {
          "internalType": "address",
          "name": "registryAddress",
          "type": "address"
        }
      ],
      "stateMutability": "nonpayable",
      "type": "constructor"
    },
    {
      "anonymous": false,
      "inputs": [
        {
          "indexed": true,
          "internalType": "uint256",
          "name": "partnershipId",
          "type": "uint256"
        }
      ],
      "name": "PartnershipCancelled",
      "type": "event"
    },
    {
      "anonymous": false,
      "inputs": [
        {
          "indexed": true,
          "internalType": "uint256",
          "name": "partnershipId",
          "type": "uint256"
        }
      ],
      "name": "PartnershipCompleted",
      "type": "event"
    },
    {
      "anonymous": false,
      "inputs": [
        {
          "indexed": true,
          "internalType": "uint256",
          "name": "partnershipId",
          "type": "uint256"
        },
        {
          "indexed": true,
          "internalType": "address",
          "name": "brand",
          "type": "address"
        },
        {
          "indexed": true,
          "internalType": "address",
          "name": "influencer",
          "type": "address"
        },
        {
          "indexed": false,
          "internalType": "uint256",
          "name": "amount",
          "type": "uint256"
        }
      ],
      "name": "PartnershipCreated",
      "type": "event"
    },
    {
      "anonymous": false,
      "inputs": [
        {
          "indexed": true,
          "internalType": "uint256",
          "name": "partnershipId",
          "type": "uint256"
        },
        {
          "indexed": true,
          "internalType": "address",
          "name": "user",
          "type": "address"
        },
        {
          "indexed": false,
          "internalType": "string",
          "name": "action",
          "type": "string"
        },
        {
          "indexed": false,
          "internalType": "bytes32",
          "name": "txHash",
          "type": "bytes32"
        }
      ],
      "name": "PartnershipTransaction",
      "type": "event"
    },
    {
      "inputs": [
        {
          "internalType": "uint256",
          "name": "partnershipId",
          "type": "uint256"
        }
      ],
      "name": "cancelPartnership",
      "outputs": [],
      "stateMutability": "nonpayable",
      "type": "function"
    },
    {
      "inputs": [
        {
          "internalType": "uint256",
          "name": "partnershipId",
          "type": "uint256"
        }
      ],
      "name": "confirmPartnership",
      "outputs": [],
      "stateMutability": "nonpayable",
      "type": "function"
    },
    {
      "inputs": [
        {
          "internalType": "address",
          "name": "partnerAddress",
          "type": "address"
        },
        {
          "internalType": "uint256",
          "name": "amount",
          "type": "uint256"
        }
      ],
      "name": "createPartnership",
      "outputs": [],
      "stateMutability": "payable",
      "type": "function"
    },
    {
      "inputs": [
        {
          "internalType": "address",
          "name": "user",
          "type": "address"
        }
      ],
      "name": "getCompletedPartnerships",
      "outputs": [
        {
          "internalType": "uint256",
          "name": "",
          "type": "uint256"
        }
      ],
      "stateMutability": "view",
      "type": "function"
    },
    {
      "inputs": [
        {
          "internalType": "uint256",
          "name": "partnershipId",
          "type": "uint256"
        }
      ],
      "name": "getPartnership",
      "outputs": [
        {
          "components": [
            {
              "internalType": "address payable",
              "name": "brand",
              "type": "address"
            },
            {
              "internalType": "address payable",
              "name": "influencer",
              "type": "address"
            },
            {
              "internalType": "uint256",
              "name": "amount",
              "type": "uint256"
            },
            {
              "internalType": "bool",
              "name": "completed",
              "type": "bool"
            },
            {
              "internalType": "bool",
              "name": "brandConfirmed",
              "type": "bool"
            },
            {
              "internalType": "bool",
              "name": "influencerConfirmed",
              "type": "bool"
            }
          ],
          "internalType": "struct Partnership.PartnershipData",
          "name": "",
          "type": "tuple"
        }
      ],
      "stateMutability": "view",
      "type": "function"
    },
    {
      "inputs": [
        {
          "internalType": "address",
          "name": "user",
          "type": "address"
        }
      ],
      "name": "getTotalEthEarned",
      "outputs": [
        {
          "internalType": "uint256",
          "name": "",
          "type": "uint256"
        }
      ],
      "stateMutability": "view",
      "type": "function"
    },
    {
      "inputs": [
        {
          "internalType": "address",
          "name": "user",
          "type": "address"
        }
      ],
      "name": "getTotalPartnerships",
      "outputs": [
        {
          "internalType": "uint256",
          "name": "",
          "type": "uint256"
        }
      ],
      "stateMutability": "view",
      "type": "function"
    },
    {
      "inputs": [
        {
          "internalType": "address",
          "name": "user",
          "type": "address"
        }
      ],
      "name": "getUserPartnerships",
      "outputs": [
        {
          "internalType": "uint256[]",
          "name": "",
          "type": "uint256[]"
        }
      ],
      "stateMutability": "view",
      "type": "function"
    },
    {
      "inputs": [],
      "name": "owner",
      "outputs": [
        {
          "internalType": "address",
          "name": "",
          "type": "address"
        }
      ],
      "stateMutability": "view",
      "type": "function"
    },
    {
      "inputs": [
        {
          "internalType": "uint256",
          "name": "",
          "type": "uint256"
        }
      ],
      "name": "partnerships",
      "outputs": [
        {
          "internalType": "address payable",
          "name": "brand",
          "type": "address"
        },
        {
          "internalType": "address payable",
          "name": "influencer",
          "type": "address"
        },
        {
          "internalType": "uint256",
          "name": "amount",
          "type": "uint256"
        },
        {
          "internalType": "bool",
          "name": "completed",
          "type": "bool"
        },
        {
          "internalType": "bool",
          "name": "brandConfirmed",
          "type": "bool"
        },
        {
          "internalType": "bool",
          "name": "influencerConfirmed",
          "type": "bool"
        }
      ],
      "stateMutability": "view",
      "type": "function"
    },
    {
      "inputs": [
        {
          "internalType": "address",
          "name": "",
          "type": "address"
        },
        {
          "internalType": "uint256",
          "name": "",
          "type": "uint256"
        }
      ],
      "name": "userPartnerships",
      "outputs": [
        {
          "internalType": "uint256",
          "name": "",
          "type": "uint256"
        }
      ],
      "stateMutability": "view",
      "type": "function"
    }
  ],
  "bytecode": "0x60c060405260016000553480156200001657600080fd5b50604051620026cb380380620026cb83398181016040528101906200003c919062000115565b8073ffffffffffffffffffffffffffffffffffffffff1660808173ffffffffffffffffffffffffffffffffffffffff16815250503373ffffffffffffffffffffffffffffffffffffffff1660a08173ffffffffffffffffffffffffffffffffffffffff16815250505062000147565b600080fd5b600073ffffffffffffffffffffffffffffffffffffffff82169050919050565b6000620000dd82620000b0565b9050919050565b620000ef81620000d0565b8114620000fb57600080fd5b50565b6000815190506200010f81620000e4565b92915050565b6000602082840312156200012e576200012d620000ab565b5b60006200013e84828501620000fe565b91505092915050565b60805160a0516125506200017b60003960008181610c0f01526114ea015260008181610ed80152610f7b01526125506000f3fe60806040526004361061009c5760003560e01c8063461fee4d11610064578063461fee4d146101c3578063622c09db146101ec578063880aaaa4146102085780638da5cb5b14610245578063aa0ef46a14610270578063e5cad4e4146102ad5761009c565b80631ebcbd59146100a15780632cf3222e146100de57806334ff906e14610107578063365d2ea31461014457806344f018eb14610181575b600080fd5b3480156100ad57600080fd5b506100c860048036038101906100c391906118f1565b6102ea565b6040516100d59190611940565b60405180910390f35b3480156100ea57600080fd5b506101056004803603810190610100919061195b565b61031b565b005b34801561011357600080fd5b5061012e60048036038101906101299190611988565b6106da565b60405161013b9190611940565b60405180910390f35b34801561015057600080fd5b5061016b60048036038101906101669190611988565b6107ef565b6040516101789190611940565b60405180910390f35b34801561018d57600080fd5b506101a860048036038101906101a3919061195b565b610a4e565b6040516101ba969594939291906119f1565b60405180910390f35b3480156101cf57600080fd5b506101ea60048036038101906101e5919061195b565b610af1565b005b610206600480360381019061020191906118f1565b610ed4565b005b34801561021457600080fd5b5061022f600480360381019061022a9190611988565b61149c565b60405161023c9190611940565b60405180910390f35b34801561025157600080fd5b5061025a6114e8565b6040516102679190611a61565b60405180910390f35b34801561027c57600080fd5b506102976004803603810190610292919061195b565b61150c565b6040516102a49190611b24565b60405180910390f35b3480156102b957600080fd5b506102d460048036038101906102cf9190611988565b611640565b6040516102e19190611bee565b60405180910390f35b6002602052816000526040600020818154811061030657600080fd5b90600052602060002001600091509150505481565b60006001600083815260200190815260200160002090503373ffffffffffffffffffffffffffffffffffffffff168160000160009054906101000a900473ffffffffffffffffffffffffffffffffffffffff1673ffffffffffffffffffffffffffffffffffffffff1614806103df57503373ffffffffffffffffffffffffffffffffffffffff168160010160009054906101000a900473ffffffffffffffffffffffffffffffffffffffff1673ffffffffffffffffffffffffffffffffffffffff16145b61041e576040517f08c379a000000000000000000000000000000000000000000000000000000000815260040161041590611c93565b60405180910390fd5b8060030160009054906101000a900460ff1615610470576040517f08c379a000000000000000000000000000000000000000000000000000000000815260040161046790611cff565b60405180910390fd5b8060000160009054906101000a900473ffffffffffffffffffffffffffffffffffffffff1673ffffffffffffffffffffffffffffffffffffffff163373ffffffffffffffffffffffffffffffffffffffff16036104e95760018160030160016101000a81548160ff02191690831515021790555061055f565b8060010160009054906101000a900473ffffffffffffffffffffffffffffffffffffffff1673ffffffffffffffffffffffffffffffffffffffff163373ffffffffffffffffffffffffffffffffffffffff160361055e5760018160030160026101000a81548160ff0219169083151502179055505b5b8060030160019054906101000a900460ff16801561058b57508060030160029054906101000a900460ff165b156106505760008160020154905060018260030160006101000a81548160ff021916908315150217905550827fb69f91c8c502d2359c3de7f34c8aaaec96ef1b769a2872c042e2770b7beb8da460405160405180910390a28160010160009054906101000a900473ffffffffffffffffffffffffffffffffffffffff1673ffffffffffffffffffffffffffffffffffffffff166108fc829081150290604051600060405180830381858888f1935050505015801561064d573d6000803e3d6000fd5b50505b3373ffffffffffffffffffffffffffffffffffffffff16827f7fd1f547fd5c88dbea8fe471b78519a4f87cb32f1e72775092cc4a1cb86305296001436106969190611d4e565b4033866040516020016106ab93929190611e16565b604051602081830303815290604052805190602001206040516106ce9190611eae565b60405180910390a35050565b600080600090506000600260008573ffffffffffffffffffffffffffffffffffffffff1673ffffffffffffffffffffffffffffffffffffffff16815260200190815260200160002080548060200260200160405190810160405280929190818152602001828054801561076c57602002820191906000526020600020905b815481526020019060010190808311610758575b5050505050905060005b81518110156107e4576001600083838151811061079657610795611edc565b5b6020026020010151815260200190815260200160002060030160009054906101000a900460ff16156107d15782806107cd90611f0b565b9350505b80806107dc90611f0b565b915050610776565b508192505050919050565b600080600090506000600260008573ffffffffffffffffffffffffffffffffffffffff1673ffffffffffffffffffffffffffffffffffffffff16815260200190815260200160002080548060200260200160405190810160405280929190818152602001828054801561088157602002820191906000526020600020905b81548152602001906001019080831161086d575b5050505050905060005b8151811015610a43576000600160008484815181106108ad576108ac611edc565b5b602002602001015181526020019081526020016000206040518060c00160405290816000820160009054906101000a900473ffffffffffffffffffffffffffffffffffffffff1673ffffffffffffffffffffffffffffffffffffffff1673ffffffffffffffffffffffffffffffffffffffff1681526020016001820160009054906101000a900473ffffffffffffffffffffffffffffffffffffffff1673ffffffffffffffffffffffffffffffffffffffff1673ffffffffffffffffffffffffffffffffffffffff168152602001600282015481526020016003820160009054906101000a900460ff161515151581526020016003820160019054906101000a900460ff161515151581526020016003820160029054906101000a900460ff16151515158152505090508573ffffffffffffffffffffffffffffffffffffffff16816020015173ffffffffffffffffffffffffffffffffffffffff16148015610a17575080606001515b15610a2f57806040015184610a2c9190611f53565b93505b508080610a3b90611f0b565b91505061088b565b508192505050919050565b60016020528060005260406000206000915090508060000160009054906101000a900473ffffffffffffffffffffffffffffffffffffffff16908060010160009054906101000a900473ffffffffffffffffffffffffffffffffffffffff16908060020154908060030160009054906101000a900460ff16908060030160019054906101000a900460ff16908060030160029054906101000a900460ff16905086565b60006001600083815260200190815260200160002090508060030160009054906101000a900460ff1615610b5a576040517f08c379a0000000000000000000000000000000000000000000000000000000008152600401610b5190611cff565b60405180910390fd5b8060000160009054906101000a900473ffffffffffffffffffffffffffffffffffffffff1673ffffffffffffffffffffffffffffffffffffffff163373ffffffffffffffffffffffffffffffffffffffff161480610c0757508060010160009054906101000a900473ffffffffffffffffffffffffffffffffffffffff1673ffffffffffffffffffffffffffffffffffffffff163373ffffffffffffffffffffffffffffffffffffffff16145b80610c5d57507f000000000000000000000000000000000000000000000000000000000000000073ffffffffffffffffffffffffffffffffffffffff163373ffffffffffffffffffffffffffffffffffffffff16145b610c9c576040517f08c379a0000000000000000000000000000000000000000000000000000000008152600401610c9390611ff9565b60405180910390fd5b600081600201541115610d19578060000160009054906101000a900473ffffffffffffffffffffffffffffffffffffffff1673ffffffffffffffffffffffffffffffffffffffff166108fc82600201549081150290604051600060405180830381858888f19350505050158015610d17573d6000803e3d6000fd5b505b610d478160000160009054906101000a900473ffffffffffffffffffffffffffffffffffffffff16836116d7565b610d758160010160009054906101000a900473ffffffffffffffffffffffffffffffffffffffff16836116d7565b60016000838152602001908152602001600020600080820160006101000a81549073ffffffffffffffffffffffffffffffffffffffff02191690556001820160006101000a81549073ffffffffffffffffffffffffffffffffffffffff021916905560028201600090556003820160006101000a81549060ff02191690556003820160016101000a81549060ff02191690556003820160026101000a81549060ff02191690555050817f17016662bfed0460e5b736a13dffcc5181e8ff1820512d11ce99f3033ef0b7b360405160405180910390a23373ffffffffffffffffffffffffffffffffffffffff16827f7fd1f547fd5c88dbea8fe471b78519a4f87cb32f1e72775092cc4a1cb8630529600143610e909190611d4e565b403386604051602001610ea593929190611e16565b60405160208183030381529060405280519060200120604051610ec89190612065565b60405180910390a35050565b60007f000000000000000000000000000000000000000000000000000000000000000073ffffffffffffffffffffffffffffffffffffffff166354f79cf3336040518263ffffffff1660e01b8152600401610f2f9190611a61565b600060405180830381865afa158015610f4c573d6000803e3d6000fd5b505050506040513d6000823e3d601f19601f82011682018060405250810190610f75919061228f565b905060007f000000000000000000000000000000000000000000000000000000000000000073ffffffffffffffffffffffffffffffffffffffff166354f79cf3856040518263ffffffff1660e01b8152600401610fd29190611a61565b600060405180830381865afa158015610fef573d6000803e3d6000fd5b505050506040513d6000823e3d601f19601f82011682018060405250810190611018919061228f565b905080602001516001811115611031576110306122d8565b5b82602001516001811115611048576110476122d8565b5b03611088576040517f08c379a000000000000000000000000000000000000000000000000000000000815260040161107f90612379565b60405180910390fd5b60008060018081111561109e5761109d6122d8565b5b846020015160018111156110b5576110b46122d8565b5b0361110757339150859050843414611102576040517f08c379a00000000000000000000000000000000000000000000000000000000081526004016110f9906123e5565b60405180910390fd5b611151565b85915033905060003414611150576040517f08c379a000000000000000000000000000000000000000000000000000000000815260040161114790612451565b60405180910390fd5b5b600080600081548092919061116590611f0b565b9190505590506040518060c001604052808473ffffffffffffffffffffffffffffffffffffffff1681526020018373ffffffffffffffffffffffffffffffffffffffff168152602001878152602001600015158152602001600015158152602001600015158152506001600083815260200190815260200160002060008201518160000160006101000a81548173ffffffffffffffffffffffffffffffffffffffff021916908373ffffffffffffffffffffffffffffffffffffffff16021790555060208201518160010160006101000a81548173ffffffffffffffffffffffffffffffffffffffff021916908373ffffffffffffffffffffffffffffffffffffffff1602179055506040820151816002015560608201518160030160006101000a81548160ff02191690831515021790555060808201518160030160016101000a81548160ff02191690831515021790555060a08201518160030160026101000a81548160ff021916908315150217905550905050600260003373ffffffffffffffffffffffffffffffffffffffff1673ffffffffffffffffffffffffffffffffffffffff168152602001908152602001600020819080600181540180825580915050600190039060005260206000200160009091909190915055600260008873ffffffffffffffffffffffffffffffffffffffff1673ffffffffffffffffffffffffffffffffffffffff1681526020019081526020016000208190806001815401808255809150506001900390600052602060002001600090919091909150558173ffffffffffffffffffffffffffffffffffffffff168373ffffffffffffffffffffffffffffffffffffffff16827f3db79f949c40c347bb2e3cc45d42fc704af377f6edc97f5dd5925ded9c3349f1896040516114059190611940565b60405180910390a43373ffffffffffffffffffffffffffffffffffffffff16817f7fd1f547fd5c88dbea8fe471b78519a4f87cb32f1e72775092cc4a1cb86305296001436114539190611d4e565b40338560405160200161146893929190611e16565b6040516020818303038152906040528051906020012060405161148b91906124bd565b60405180910390a350505050505050565b6000600260008373ffffffffffffffffffffffffffffffffffffffff1673ffffffffffffffffffffffffffffffffffffffff168152602001908152602001600020805490509050919050565b7f000000000000000000000000000000000000000000000000000000000000000081565b6115146117e1565b600160008381526020019081526020016000206040518060c00160405290816000820160009054906101000a900473ffffffffffffffffffffffffffffffffffffffff1673ffffffffffffffffffffffffffffffffffffffff1673ffffffffffffffffffffffffffffffffffffffff1681526020016001820160009054906101000a900473ffffffffffffffffffffffffffffffffffffffff1673ffffffffffffffffffffffffffffffffffffffff1673ffffffffffffffffffffffffffffffffffffffff168152602001600282015481526020016003820160009054906101000a900460ff161515151581526020016003820160019054906101000a900460ff161515151581526020016003820160029054906101000a900460ff1615151515815250509050919050565b6060600260008373ffffffffffffffffffffffffffffffffffffffff1673ffffffffffffffffffffffffffffffffffffffff1681526020019081526020016000208054806020026020016040519081016040528092919081815260200182805480156116cb57602002820191906000526020600020905b8154815260200190600101908083116116b7575b50505050509050919050565b6000600260008473ffffffffffffffffffffffffffffffffffffffff1673ffffffffffffffffffffffffffffffffffffffff168152602001908152602001600020905060005b81805490508110156117db578282828154811061173d5761173c611edc565b5b9060005260206000200154036117c857816001838054905061175f9190611d4e565b815481106117705761176f611edc565b5b906000526020600020015482828154811061178e5761178d611edc565b5b9060005260206000200181905550818054806117ad576117ac6124eb565b5b600190038181906000526020600020016000905590556117db565b80806117d390611f0b565b91505061171d565b50505050565b6040518060c00160405280600073ffffffffffffffffffffffffffffffffffffffff168152602001600073ffffffffffffffffffffffffffffffffffffffff168152602001600081526020016000151581526020016000151581526020016000151581525090565b6000604051905090565b600080fd5b600080fd5b600073ffffffffffffffffffffffffffffffffffffffff82169050919050565b60006118888261185d565b9050919050565b6118988161187d565b81146118a357600080fd5b50565b6000813590506118b58161188f565b92915050565b6000819050919050565b6118ce816118bb565b81146118d957600080fd5b50565b6000813590506118eb816118c5565b92915050565b6000806040838503121561190857611907611853565b5b6000611916858286016118a6565b9250506020611927858286016118dc565b9150509250929050565b61193a816118bb565b82525050565b60006020820190506119556000830184611931565b92915050565b60006020828403121561197157611970611853565b5b600061197f848285016118dc565b91505092915050565b60006020828403121561199e5761199d611853565b5b60006119ac848285016118a6565b91505092915050565b60006119c08261185d565b9050919050565b6119d0816119b5565b82525050565b60008115159050919050565b6119eb816119d6565b82525050565b600060c082019050611a0660008301896119c7565b611a1360208301886119c7565b611a206040830187611931565b611a2d60608301866119e2565b611a3a60808301856119e2565b611a4760a08301846119e2565b979650505050505050565b611a5b8161187d565b82525050565b6000602082019050611a766000830184611a52565b92915050565b611a85816119b5565b82525050565b611a94816118bb565b82525050565b611aa3816119d6565b82525050565b60c082016000820151611abf6000850182611a7c565b506020820151611ad26020850182611a7c565b506040820151611ae56040850182611a8b565b506060820151611af86060850182611a9a565b506080820151611b0b6080850182611a9a565b5060a0820151611b1e60a0850182611a9a565b50505050565b600060c082019050611b396000830184611aa9565b92915050565b600081519050919050565b600082825260208201905092915050565b6000819050602082019050919050565b6000611b778383611a8b565b60208301905092915050565b6000602082019050919050565b6000611b9b82611b3f565b611ba58185611b4a565b9350611bb083611b5b565b8060005b83811015611be1578151611bc88882611b6b565b9750611bd383611b83565b925050600181019050611bb4565b5085935050505092915050565b60006020820190508181036000830152611c088184611b90565b905092915050565b600082825260208201905092915050565b7f43616c6c6572206d757374206265206120706172747920746f2074686520706160008201527f72746e6572736869700000000000000000000000000000000000000000000000602082015250565b6000611c7d602983611c10565b9150611c8882611c21565b604082019050919050565b60006020820190508181036000830152611cac81611c70565b9050919050565b7f506172746e65727368697020616c726561647920636f6d706c65746564000000600082015250565b6000611ce9601d83611c10565b9150611cf482611cb3565b602082019050919050565b60006020820190508181036000830152611d1881611cdc565b9050919050565b7f4e487b7100000000000000000000000000000000000000000000000000000000600052601160045260246000fd5b6000611d59826118bb565b9150611d64836118bb565b9250828203905081811115611d7c57611d7b611d1f565b5b92915050565b6000819050919050565b6000819050919050565b611da7611da282611d82565b611d8c565b82525050565b60008160601b9050919050565b6000611dc582611dad565b9050919050565b6000611dd782611dba565b9050919050565b611def611dea8261187d565b611dcc565b82525050565b6000819050919050565b611e10611e0b826118bb565b611df5565b82525050565b6000611e228286611d96565b602082019150611e328285611dde565b601482019150611e428284611dff565b602082019150819050949350505050565b7f636f6e6669726d00000000000000000000000000000000000000000000000000600082015250565b6000611e89600783611c10565b9150611e9482611e53565b602082019050919050565b611ea881611d82565b82525050565b60006040820190508181036000830152611ec781611e7c565b9050611ed66020830184611e9f565b92915050565b7f4e487b7100000000000000000000000000000000000000000000000000000000600052603260045260246000fd5b6000611f16826118bb565b91507fffffffffffffffffffffffffffffffffffffffffffffffffffffffffffffffff8203611f4857611f47611d1f565b5b600182019050919050565b6000611f5e826118bb565b9150611f69836118bb565b9250828201905080821115611f8157611f80611d1f565b5b92915050565b7f43616c6c6572206d757374206265206120706172747920746f2074686520706160008201527f72746e657273686970206f7220746865206f776e657200000000000000000000602082015250565b6000611fe3603683611c10565b9150611fee82611f87565b604082019050919050565b6000602082019050818103600083015261201281611fd6565b9050919050565b7f63616e63656c0000000000000000000000000000000000000000000000000000600082015250565b600061204f600683611c10565b915061205a82612019565b602082019050919050565b6000604082019050818103600083015261207e81612042565b905061208d6020830184611e9f565b92915050565b600080fd5b6000601f19601f8301169050919050565b7f4e487b7100000000000000000000000000000000000000000000000000000000600052604160045260246000fd5b6120e182612098565b810181811067ffffffffffffffff82111715612100576120ff6120a9565b5b80604052505050565b6000612113611849565b905061211f82826120d8565b919050565b600080fd5b600080fd5b600080fd5b600067ffffffffffffffff82111561214e5761214d6120a9565b5b61215782612098565b9050602081019050919050565b60005b83811015612182578082015181840152602081019050612167565b60008484015250505050565b60006121a161219c84612133565b612109565b9050828152602081018484840111156121bd576121bc61212e565b5b6121c8848285612164565b509392505050565b600082601f8301126121e5576121e4612129565b5b81516121f584826020860161218e565b91505092915050565b6002811061220b57600080fd5b50565b60008151905061221d816121fe565b92915050565b60006040828403121561223957612238612093565b5b6122436040612109565b9050600082015167ffffffffffffffff81111561226357612262612124565b5b61226f848285016121d0565b60008301525060206122838482850161220e565b60208301525092915050565b6000602082840312156122a5576122a4611853565b5b600082015167ffffffffffffffff8111156122c3576122c2611858565b5b6122cf84828501612223565b91505092915050565b7f4e487b7100000000000000000000000000000000000000000000000000000000600052602160045260246000fd5b7f506172746e657273206d757374206265206f6620646966666572656e7420747960008201527f7065730000000000000000000000000000000000000000000000000000000000602082015250565b6000612363602383611c10565b915061236e82612307565b604082019050919050565b6000602082019050818103600083015261239281612356565b9050919050565b7f496e636f727265637420616d6f756e742073656e740000000000000000000000600082015250565b60006123cf601583611c10565b91506123da82612399565b602082019050919050565b600060208201905081810360008301526123fe816123c2565b9050919050565b7f496e666c75656e6365722073686f756c64206e6f742073656e642066756e6473600082015250565b600061243b602083611c10565b915061244682612405565b602082019050919050565b6000602082019050818103600083015261246a8161242e565b9050919050565b7f6372656174650000000000000000000000000000000000000000000000000000600082015250565b60006124a7600683611c10565b91506124b282612471565b602082019050919050565b600060408201905081810360008301526124d68161249a565b90506124e56020830184611e9f565b92915050565b7f4e487b7100000000000000000000000000000000000000000000000000000000600052603160045260246000fdfea2646970667358221220037238d8a424b08449833f2ae04130a36cc6ee964e60e39a8145828589cbfc3f64736f6c63430008140033",
  "linkReferences": {},
  "deployedLinkReferences": {}
}